{
  "contractName": "TheWineGame",
  "abi": [
    {
      "inputs": [],
      "stateMutability": "nonpayable",
      "type": "constructor"
    },
    {
      "anonymous": false,
      "inputs": [
        {
          "indexed": true,
          "internalType": "address",
          "name": "owner",
          "type": "address"
        },
        {
          "indexed": true,
          "internalType": "address",
          "name": "approved",
          "type": "address"
        },
        {
          "indexed": true,
          "internalType": "uint256",
          "name": "tokenId",
          "type": "uint256"
        }
      ],
      "name": "Approval",
      "type": "event"
    },
    {
      "anonymous": false,
      "inputs": [
        {
          "indexed": true,
          "internalType": "address",
          "name": "owner",
          "type": "address"
        },
        {
          "indexed": true,
          "internalType": "address",
          "name": "operator",
          "type": "address"
        },
        {
          "indexed": false,
          "internalType": "bool",
          "name": "approved",
          "type": "bool"
        }
      ],
      "name": "ApprovalForAll",
      "type": "event"
    },
    {
      "anonymous": false,
      "inputs": [
        {
          "indexed": true,
          "internalType": "address",
          "name": "previousOwner",
          "type": "address"
        },
        {
          "indexed": true,
          "internalType": "address",
          "name": "newOwner",
          "type": "address"
        }
      ],
      "name": "OwnershipTransferred",
      "type": "event"
    },
    {
      "anonymous": false,
      "inputs": [
        {
          "indexed": true,
          "internalType": "address",
          "name": "from",
          "type": "address"
        },
        {
          "indexed": true,
          "internalType": "address",
          "name": "to",
          "type": "address"
        },
        {
          "indexed": true,
          "internalType": "uint256",
          "name": "tokenId",
          "type": "uint256"
        }
      ],
      "name": "Transfer",
      "type": "event"
    },
    {
      "inputs": [
        {
          "internalType": "address",
          "name": "to",
          "type": "address"
        },
        {
          "internalType": "uint256",
          "name": "tokenId",
          "type": "uint256"
        }
      ],
      "name": "approve",
      "outputs": [],
      "stateMutability": "nonpayable",
      "type": "function"
    },
    {
      "inputs": [
        {
          "internalType": "address",
          "name": "owner",
          "type": "address"
        }
      ],
      "name": "balanceOf",
      "outputs": [
        {
          "internalType": "uint256",
          "name": "",
          "type": "uint256"
        }
      ],
      "stateMutability": "view",
      "type": "function",
      "constant": true
    },
    {
      "inputs": [
        {
          "internalType": "uint256",
          "name": "tokenId",
          "type": "uint256"
        }
      ],
      "name": "getApproved",
      "outputs": [
        {
          "internalType": "address",
          "name": "",
          "type": "address"
        }
      ],
      "stateMutability": "view",
      "type": "function",
      "constant": true
    },
    {
      "inputs": [
        {
          "internalType": "address",
          "name": "owner",
          "type": "address"
        },
        {
          "internalType": "address",
          "name": "operator",
          "type": "address"
        }
      ],
      "name": "isApprovedForAll",
      "outputs": [
        {
          "internalType": "bool",
          "name": "",
          "type": "bool"
        }
      ],
      "stateMutability": "view",
      "type": "function",
      "constant": true
    },
    {
      "inputs": [],
      "name": "name",
      "outputs": [
        {
          "internalType": "string",
          "name": "",
          "type": "string"
        }
      ],
      "stateMutability": "view",
      "type": "function",
      "constant": true
    },
    {
      "inputs": [],
      "name": "owner",
      "outputs": [
        {
          "internalType": "address",
          "name": "",
          "type": "address"
        }
      ],
      "stateMutability": "view",
      "type": "function",
      "constant": true
    },
    {
      "inputs": [
        {
          "internalType": "uint256",
          "name": "tokenId",
          "type": "uint256"
        }
      ],
      "name": "ownerOf",
      "outputs": [
        {
          "internalType": "address",
          "name": "",
          "type": "address"
        }
      ],
      "stateMutability": "view",
      "type": "function",
      "constant": true
    },
    {
      "inputs": [],
      "name": "renounceOwnership",
      "outputs": [],
      "stateMutability": "nonpayable",
      "type": "function"
    },
    {
      "inputs": [
        {
          "internalType": "address",
          "name": "from",
          "type": "address"
        },
        {
          "internalType": "address",
          "name": "to",
          "type": "address"
        },
        {
          "internalType": "uint256",
          "name": "tokenId",
          "type": "uint256"
        }
      ],
      "name": "safeTransferFrom",
      "outputs": [],
      "stateMutability": "nonpayable",
      "type": "function"
    },
    {
      "inputs": [
        {
          "internalType": "address",
          "name": "from",
          "type": "address"
        },
        {
          "internalType": "address",
          "name": "to",
          "type": "address"
        },
        {
          "internalType": "uint256",
          "name": "tokenId",
          "type": "uint256"
        },
        {
          "internalType": "bytes",
          "name": "data",
          "type": "bytes"
        }
      ],
      "name": "safeTransferFrom",
      "outputs": [],
      "stateMutability": "nonpayable",
      "type": "function"
    },
    {
      "inputs": [
        {
          "internalType": "address",
          "name": "operator",
          "type": "address"
        },
        {
          "internalType": "bool",
          "name": "approved",
          "type": "bool"
        }
      ],
      "name": "setApprovalForAll",
      "outputs": [],
      "stateMutability": "nonpayable",
      "type": "function"
    },
    {
      "inputs": [
        {
          "internalType": "bytes4",
          "name": "interfaceId",
          "type": "bytes4"
        }
      ],
      "name": "supportsInterface",
      "outputs": [
        {
          "internalType": "bool",
          "name": "",
          "type": "bool"
        }
      ],
      "stateMutability": "view",
      "type": "function",
      "constant": true
    },
    {
      "inputs": [],
      "name": "symbol",
      "outputs": [
        {
          "internalType": "string",
          "name": "",
          "type": "string"
        }
      ],
      "stateMutability": "view",
      "type": "function",
      "constant": true
    },
    {
      "inputs": [
        {
          "internalType": "uint256",
          "name": "tokenId",
          "type": "uint256"
        }
      ],
      "name": "tokenURI",
      "outputs": [
        {
          "internalType": "string",
          "name": "",
          "type": "string"
        }
      ],
      "stateMutability": "view",
      "type": "function",
      "constant": true
    },
    {
      "inputs": [
        {
          "internalType": "address",
          "name": "from",
          "type": "address"
        },
        {
          "internalType": "address",
          "name": "to",
          "type": "address"
        },
        {
          "internalType": "uint256",
          "name": "tokenId",
          "type": "uint256"
        }
      ],
      "name": "transferFrom",
      "outputs": [],
      "stateMutability": "nonpayable",
      "type": "function"
    },
    {
      "inputs": [
        {
          "internalType": "address",
          "name": "newOwner",
          "type": "address"
        }
      ],
      "name": "transferOwnership",
      "outputs": [],
      "stateMutability": "nonpayable",
      "type": "function"
    },
    {
      "inputs": [
        {
          "internalType": "string",
          "name": "baseURI",
          "type": "string"
        }
      ],
      "name": "setBaseURI",
      "outputs": [],
      "stateMutability": "nonpayable",
      "type": "function"
    },
    {
      "inputs": [
        {
          "internalType": "uint256",
          "name": "tokenID",
          "type": "uint256"
        }
      ],
      "name": "getCork",
      "outputs": [
        {
          "internalType": "uint16",
          "name": "year",
          "type": "uint16"
        },
        {
          "internalType": "uint8",
          "name": "month",
          "type": "uint8"
        },
        {
          "internalType": "uint8",
          "name": "day",
          "type": "uint8"
        },
        {
          "internalType": "address[]",
          "name": "guests",
          "type": "address[]"
        },
        {
          "internalType": "string",
          "name": "title",
          "type": "string"
        },
        {
          "internalType": "string",
          "name": "brand",
          "type": "string"
        },
        {
          "internalType": "string",
          "name": "name",
          "type": "string"
        }
      ],
      "stateMutability": "view",
      "type": "function",
      "constant": true
    },
    {
      "inputs": [
        {
          "internalType": "address[]",
          "name": "guests",
          "type": "address[]"
        },
        {
          "internalType": "string",
          "name": "title",
          "type": "string"
        },
        {
          "internalType": "uint256",
          "name": "beverage_barcode_data",
          "type": "uint256"
        },
        {
          "internalType": "string",
          "name": "beverage_brand",
          "type": "string"
        },
        {
          "internalType": "string",
          "name": "baverage_name",
          "type": "string"
        }
      ],
      "name": "claim",
      "outputs": [],
      "stateMutability": "payable",
      "type": "function",
      "payable": true
    },
    {
      "inputs": [
        {
          "internalType": "uint256",
          "name": "timestamp",
          "type": "uint256"
        }
      ],
      "name": "timestampToDate",
      "outputs": [
        {
          "internalType": "uint16",
          "name": "year",
          "type": "uint16"
        },
        {
          "internalType": "uint8",
          "name": "month",
          "type": "uint8"
        },
        {
          "internalType": "uint8",
          "name": "day",
          "type": "uint8"
        }
      ],
      "stateMutability": "pure",
      "type": "function",
      "constant": true
    }
  ],
  "bytecode": "0x608060405260006009553480156200001657600080fd5b506040518060400160405280600b81526020017f54686557696e6547616d650000000000000000000000000000000000000000008152506040518060400160405280600381526020017f5457470000000000000000000000000000000000000000000000000000000000815250620000a3620000976200011560201b60201c565b6200011d60201b60201c565b8160019081620000b491906200053a565b508060029081620000c691906200053a565b5050506200010f6040518060400160405280600e81526020017f6c6f63616c686f73743a33333333000000000000000000000000000000000000815250620001e160201b60201c565b620006a4565b600033905090565b60008060009054906101000a900473ffffffffffffffffffffffffffffffffffffffff169050816000806101000a81548173ffffffffffffffffffffffffffffffffffffffff021916908373ffffffffffffffffffffffffffffffffffffffff1602179055508173ffffffffffffffffffffffffffffffffffffffff168173ffffffffffffffffffffffffffffffffffffffff167f8be0079c531659141344cd1fd0a4f28419497f9722a3daafe3b4186f6b6457e060405160405180910390a35050565b620001f16200020660201b60201c565b80600890816200020291906200053a565b5050565b620002166200011560201b60201c565b73ffffffffffffffffffffffffffffffffffffffff166200023c6200029760201b60201c565b73ffffffffffffffffffffffffffffffffffffffff161462000295576040517f08c379a00000000000000000000000000000000000000000000000000000000081526004016200028c9062000682565b60405180910390fd5b565b60008060009054906101000a900473ffffffffffffffffffffffffffffffffffffffff16905090565b600081519050919050565b7f4e487b7100000000000000000000000000000000000000000000000000000000600052604160045260246000fd5b7f4e487b7100000000000000000000000000000000000000000000000000000000600052602260045260246000fd5b600060028204905060018216806200034257607f821691505b602082108103620003585762000357620002fa565b5b50919050565b60008190508160005260206000209050919050565b60006020601f8301049050919050565b600082821b905092915050565b600060088302620003c27fffffffffffffffffffffffffffffffffffffffffffffffffffffffffffffffff8262000383565b620003ce868362000383565b95508019841693508086168417925050509392505050565b6000819050919050565b6000819050919050565b60006200041b620004156200040f84620003e6565b620003f0565b620003e6565b9050919050565b6000819050919050565b6200043783620003fa565b6200044f620004468262000422565b84845462000390565b825550505050565b600090565b6200046662000457565b620004738184846200042c565b505050565b5b818110156200049b576200048f6000826200045c565b60018101905062000479565b5050565b601f821115620004ea57620004b4816200035e565b620004bf8462000373565b81016020851015620004cf578190505b620004e7620004de8562000373565b83018262000478565b50505b505050565b600082821c905092915050565b60006200050f60001984600802620004ef565b1980831691505092915050565b60006200052a8383620004fc565b9150826002028217905092915050565b6200054582620002c0565b67ffffffffffffffff811115620005615762000560620002cb565b5b6200056d825462000329565b6200057a8282856200049f565b600060209050601f831160018114620005b257600084156200059d578287015190505b620005a985826200051c565b86555062000619565b601f198416620005c2866200035e565b60005b82811015620005ec57848901518255600182019150602085019450602081019050620005c5565b868310156200060c578489015162000608601f891682620004fc565b8355505b6001600288020188555050505b505050505050565b600082825260208201905092915050565b7f4f776e61626c653a2063616c6c6572206973206e6f7420746865206f776e6572600082015250565b60006200066a60208362000621565b9150620006778262000632565b602082019050919050565b600060208201905081810360008301526200069d816200065b565b9050919050565b613c4180620006b46000396000f3fe60806040526004361061011f5760003560e01c80638da5cb5b116100a0578063dd6a633b11610064578063dd6a633b146103e3578063de5101af146103ff578063e985e9c51461043e578063f2fde38b1461047b578063f38df478146104a45761011f565b80638da5cb5b146102fe57806395d89b4114610329578063a22cb46514610354578063b88d4fde1461037d578063c87b56dd146103a65761011f565b806342842e0e116100e757806342842e0e1461021b57806355f804b3146102445780636352211e1461026d57806370a08231146102aa578063715018a6146102e75761011f565b806301ffc9a71461012457806306fdde0314610161578063081812fc1461018c578063095ea7b3146101c957806323b872dd146101f2575b600080fd5b34801561013057600080fd5b5061014b60048036038101906101469190612589565b6104e7565b60405161015891906125d1565b60405180910390f35b34801561016d57600080fd5b506101766105c9565b604051610183919061267c565b60405180910390f35b34801561019857600080fd5b506101b360048036038101906101ae91906126d4565b61065b565b6040516101c09190612742565b60405180910390f35b3480156101d557600080fd5b506101f060048036038101906101eb9190612789565b6106a1565b005b3480156101fe57600080fd5b50610219600480360381019061021491906127c9565b6107b8565b005b34801561022757600080fd5b50610242600480360381019061023d91906127c9565b610818565b005b34801561025057600080fd5b5061026b60048036038101906102669190612951565b610838565b005b34801561027957600080fd5b50610294600480360381019061028f91906126d4565b610853565b6040516102a19190612742565b60405180910390f35b3480156102b657600080fd5b506102d160048036038101906102cc919061299a565b6108d9565b6040516102de91906129d6565b60405180910390f35b3480156102f357600080fd5b506102fc610990565b005b34801561030a57600080fd5b506103136109a4565b6040516103209190612742565b60405180910390f35b34801561033557600080fd5b5061033e6109cd565b60405161034b919061267c565b60405180910390f35b34801561036057600080fd5b5061037b60048036038101906103769190612a1d565b610a5f565b005b34801561038957600080fd5b506103a4600480360381019061039f9190612afe565b610a75565b005b3480156103b257600080fd5b506103cd60048036038101906103c891906126d4565b610ad7565b6040516103da919061267c565b60405180910390f35b6103fd60048036038101906103f89190612c49565b610b3f565b005b34801561040b57600080fd5b50610426600480360381019061042191906126d4565b610bf1565b60405161043593929190612d6d565b60405180910390f35b34801561044a57600080fd5b5061046560048036038101906104609190612da4565b610de7565b60405161047291906125d1565b60405180910390f35b34801561048757600080fd5b506104a2600480360381019061049d919061299a565b610e7b565b005b3480156104b057600080fd5b506104cb60048036038101906104c691906126d4565b610efe565b6040516104de9796959493929190612ea2565b60405180910390f35b60007f80ac58cd000000000000000000000000000000000000000000000000000000007bffffffffffffffffffffffffffffffffffffffffffffffffffffffff1916827bffffffffffffffffffffffffffffffffffffffffffffffffffffffff191614806105b257507f5b5e139f000000000000000000000000000000000000000000000000000000007bffffffffffffffffffffffffffffffffffffffffffffffffffffffff1916827bffffffffffffffffffffffffffffffffffffffffffffffffffffffff1916145b806105c257506105c182611259565b5b9050919050565b6060600180546105d890612f5c565b80601f016020809104026020016040519081016040528092919081815260200182805461060490612f5c565b80156106515780601f1061062657610100808354040283529160200191610651565b820191906000526020600020905b81548152906001019060200180831161063457829003601f168201915b5050505050905090565b6000610666826112c3565b6005600083815260200190815260200160002060009054906101000a900473ffffffffffffffffffffffffffffffffffffffff169050919050565b60006106ac82610853565b90508073ffffffffffffffffffffffffffffffffffffffff168373ffffffffffffffffffffffffffffffffffffffff160361071c576040517f08c379a000000000000000000000000000000000000000000000000000000000815260040161071390612fff565b60405180910390fd5b8073ffffffffffffffffffffffffffffffffffffffff1661073b61130e565b73ffffffffffffffffffffffffffffffffffffffff16148061076a57506107698161076461130e565b610de7565b5b6107a9576040517f08c379a00000000000000000000000000000000000000000000000000000000081526004016107a090613091565b60405180910390fd5b6107b38383611316565b505050565b6107c96107c361130e565b826113cf565b610808576040517f08c379a00000000000000000000000000000000000000000000000000000000081526004016107ff90613123565b60405180910390fd5b610813838383611464565b505050565b61083383838360405180602001604052806000815250610a75565b505050565b61084061175d565b806008908161084f91906132ef565b5050565b60008061085f836117db565b9050600073ffffffffffffffffffffffffffffffffffffffff168173ffffffffffffffffffffffffffffffffffffffff16036108d0576040517f08c379a00000000000000000000000000000000000000000000000000000000081526004016108c79061340d565b60405180910390fd5b80915050919050565b60008073ffffffffffffffffffffffffffffffffffffffff168273ffffffffffffffffffffffffffffffffffffffff1603610949576040517f08c379a00000000000000000000000000000000000000000000000000000000081526004016109409061349f565b60405180910390fd5b600460008373ffffffffffffffffffffffffffffffffffffffff1673ffffffffffffffffffffffffffffffffffffffff168152602001908152602001600020549050919050565b61099861175d565b6109a26000611818565b565b60008060009054906101000a900473ffffffffffffffffffffffffffffffffffffffff16905090565b6060600280546109dc90612f5c565b80601f0160208091040260200160405190810160405280929190818152602001828054610a0890612f5c565b8015610a555780601f10610a2a57610100808354040283529160200191610a55565b820191906000526020600020905b815481529060010190602001808311610a3857829003601f168201915b5050505050905090565b610a71610a6a61130e565b83836118dc565b5050565b610a86610a8061130e565b836113cf565b610ac5576040517f08c379a0000000000000000000000000000000000000000000000000000000008152600401610abc90613123565b60405180910390fd5b610ad184848484611a48565b50505050565b6060610ae2826112c3565b6000610aec611aa4565b90506000815111610b0c5760405180602001604052806000815250610b37565b80610b1684611b36565b604051602001610b279291906134fb565b6040516020818303038152906040525b915050919050565b662386f26fc100003414610b88576040517f08c379a0000000000000000000000000000000000000000000000000000000008152600401610b7f9061356b565b60405180910390fd5b610b958585858585611c04565b610b9d6109a4565b73ffffffffffffffffffffffffffffffffffffffff166108fc662386f26fc100009081150290604051600060405180830381858888f19350505050158015610be9573d6000803e3d6000fd5b505050505050565b600080600080620afa6c6201518086610c0a91906135e9565b610c14919061361a565b9050600062023ab16000831015610c395762023ab083610c34919061364e565b610c3b565b825b610c4591906135e9565b9050600062023ab182610c589190613682565b83610c63919061364e565b9050600061016d62023ab083610c7991906135e9565b618eac84610c8791906135e9565b6105b485610c9591906135e9565b85610ca0919061364e565b610caa919061361a565b610cb4919061364e565b610cbe91906135e9565b90506000606482610ccf91906135e9565b600483610cdc91906135e9565b8361016d610cea9190613682565b610cf4919061361a565b610cfe919061364e565b83610d09919061364e565b9050600060996002836005610d1e9190613682565b610d28919061361a565b610d3291906135e9565b9050600160056002836099610d479190613682565b610d51919061361a565b610d5b91906135e9565b83610d66919061364e565b610d70919061361a565b9650600a8110610d8c57600981610d87919061364e565b610d9a565b600381610d99919061361a565b5b975060028860ff161115610daf576000610db2565b60015b60ff1661019086610dc39190613682565b84610dce919061361a565b610dd8919061361a565b98505050505050509193909250565b6000600660008473ffffffffffffffffffffffffffffffffffffffff1673ffffffffffffffffffffffffffffffffffffffff16815260200190815260200160002060008373ffffffffffffffffffffffffffffffffffffffff1673ffffffffffffffffffffffffffffffffffffffff16815260200190815260200160002060009054906101000a900460ff16905092915050565b610e8361175d565b600073ffffffffffffffffffffffffffffffffffffffff168173ffffffffffffffffffffffffffffffffffffffff1603610ef2576040517f08c379a0000000000000000000000000000000000000000000000000000000008152600401610ee990613736565b60405180910390fd5b610efb81611818565b50565b6000806000606080606080610f1288611d76565b610f51576040517f08c379a0000000000000000000000000000000000000000000000000000000008152600401610f48906137a2565b60405180910390fd5b6000600760008a8152602001908152602001600020604051806101000160405290816000820160009054906101000a900461ffff1661ffff1661ffff1681526020016000820160029054906101000a900460ff1660ff1660ff1681526020016000820160039054906101000a900460ff1660ff1660ff1681526020016001820180548060200260200160405190810160405280929190818152602001828054801561105157602002820191906000526020600020905b8160009054906101000a900473ffffffffffffffffffffffffffffffffffffffff1673ffffffffffffffffffffffffffffffffffffffff1681526020019060010190808311611007575b5050505050815260200160028201805461106a90612f5c565b80601f016020809104026020016040519081016040528092919081815260200182805461109690612f5c565b80156110e35780601f106110b8576101008083540402835291602001916110e3565b820191906000526020600020905b8154815290600101906020018083116110c657829003601f168201915b505050505081526020016003820154815260200160048201805461110690612f5c565b80601f016020809104026020016040519081016040528092919081815260200182805461113290612f5c565b801561117f5780601f106111545761010080835404028352916020019161117f565b820191906000526020600020905b81548152906001019060200180831161116257829003601f168201915b5050505050815260200160058201805461119890612f5c565b80601f01602080910402602001604051908101604052809291908181526020018280546111c490612f5c565b80156112115780601f106111e657610100808354040283529160200191611211565b820191906000526020600020905b8154815290600101906020018083116111f457829003601f168201915b505050505081525050905080600001519750806020015196508060400151955080606001519450806080015193508060c0015192508060e00151915050919395979092949650565b60007f01ffc9a7000000000000000000000000000000000000000000000000000000007bffffffffffffffffffffffffffffffffffffffffffffffffffffffff1916827bffffffffffffffffffffffffffffffffffffffffffffffffffffffff1916149050919050565b6112cc81611d76565b61130b576040517f08c379a00000000000000000000000000000000000000000000000000000000081526004016113029061340d565b60405180910390fd5b50565b600033905090565b816005600083815260200190815260200160002060006101000a81548173ffffffffffffffffffffffffffffffffffffffff021916908373ffffffffffffffffffffffffffffffffffffffff160217905550808273ffffffffffffffffffffffffffffffffffffffff1661138983610853565b73ffffffffffffffffffffffffffffffffffffffff167f8c5be1e5ebec7d5bd14f71427d1e84f3dd0314c0f7b2291e5b200ac8c7c3b92560405160405180910390a45050565b6000806113db83610853565b90508073ffffffffffffffffffffffffffffffffffffffff168473ffffffffffffffffffffffffffffffffffffffff16148061141d575061141c8185610de7565b5b8061145b57508373ffffffffffffffffffffffffffffffffffffffff166114438461065b565b73ffffffffffffffffffffffffffffffffffffffff16145b91505092915050565b8273ffffffffffffffffffffffffffffffffffffffff1661148482610853565b73ffffffffffffffffffffffffffffffffffffffff16146114da576040517f08c379a00000000000000000000000000000000000000000000000000000000081526004016114d190613834565b60405180910390fd5b600073ffffffffffffffffffffffffffffffffffffffff168273ffffffffffffffffffffffffffffffffffffffff1603611549576040517f08c379a0000000000000000000000000000000000000000000000000000000008152600401611540906138c6565b60405180910390fd5b6115568383836001611db7565b8273ffffffffffffffffffffffffffffffffffffffff1661157682610853565b73ffffffffffffffffffffffffffffffffffffffff16146115cc576040517f08c379a00000000000000000000000000000000000000000000000000000000081526004016115c390613834565b60405180910390fd5b6005600082815260200190815260200160002060006101000a81549073ffffffffffffffffffffffffffffffffffffffff02191690556001600460008573ffffffffffffffffffffffffffffffffffffffff1673ffffffffffffffffffffffffffffffffffffffff168152602001908152602001600020600082825403925050819055506001600460008473ffffffffffffffffffffffffffffffffffffffff1673ffffffffffffffffffffffffffffffffffffffff16815260200190815260200160002060008282540192505081905550816003600083815260200190815260200160002060006101000a81548173ffffffffffffffffffffffffffffffffffffffff021916908373ffffffffffffffffffffffffffffffffffffffff160217905550808273ffffffffffffffffffffffffffffffffffffffff168473ffffffffffffffffffffffffffffffffffffffff167fddf252ad1be2c89b69c2b068fc378daa952ba7f163c4a11628f55a4df523b3ef60405160405180910390a46117588383836001611edd565b505050565b61176561130e565b73ffffffffffffffffffffffffffffffffffffffff166117836109a4565b73ffffffffffffffffffffffffffffffffffffffff16146117d9576040517f08c379a00000000000000000000000000000000000000000000000000000000081526004016117d090613932565b60405180910390fd5b565b60006003600083815260200190815260200160002060009054906101000a900473ffffffffffffffffffffffffffffffffffffffff169050919050565b60008060009054906101000a900473ffffffffffffffffffffffffffffffffffffffff169050816000806101000a81548173ffffffffffffffffffffffffffffffffffffffff021916908373ffffffffffffffffffffffffffffffffffffffff1602179055508173ffffffffffffffffffffffffffffffffffffffff168173ffffffffffffffffffffffffffffffffffffffff167f8be0079c531659141344cd1fd0a4f28419497f9722a3daafe3b4186f6b6457e060405160405180910390a35050565b8173ffffffffffffffffffffffffffffffffffffffff168373ffffffffffffffffffffffffffffffffffffffff160361194a576040517f08c379a00000000000000000000000000000000000000000000000000000000081526004016119419061399e565b60405180910390fd5b80600660008573ffffffffffffffffffffffffffffffffffffffff1673ffffffffffffffffffffffffffffffffffffffff16815260200190815260200160002060008473ffffffffffffffffffffffffffffffffffffffff1673ffffffffffffffffffffffffffffffffffffffff16815260200190815260200160002060006101000a81548160ff0219169083151502179055508173ffffffffffffffffffffffffffffffffffffffff168373ffffffffffffffffffffffffffffffffffffffff167f17307eab39ab6107e8899845ad3d59bd9653f200f220920489ca2b5937696c3183604051611a3b91906125d1565b60405180910390a3505050565b611a53848484611464565b611a5f84848484611ee3565b611a9e576040517f08c379a0000000000000000000000000000000000000000000000000000000008152600401611a9590613a30565b60405180910390fd5b50505050565b606060088054611ab390612f5c565b80601f0160208091040260200160405190810160405280929190818152602001828054611adf90612f5c565b8015611b2c5780601f10611b0157610100808354040283529160200191611b2c565b820191906000526020600020905b815481529060010190602001808311611b0f57829003601f168201915b5050505050905090565b606060006001611b458461206a565b01905060008167ffffffffffffffff811115611b6457611b63612826565b5b6040519080825280601f01601f191660200182016040528015611b965781602001600182028036833780820191505090505b509050600082602001820190505b600115611bf9578080600190039150507f3031323334353637383961626364656600000000000000000000000000000000600a86061a8153600a8581611bed57611bec61358b565b5b04945060008503611ba4575b819350505050919050565b60006009549050600160096000828254611c1e919061361a565b925050819055506000806000611c3342610bf1565b9250925092506040518061010001604052808461ffff1681526020018360ff1681526020018260ff1681526020018a8152602001898152602001888152602001878152602001868152506007600086815260200190815260200160002060008201518160000160006101000a81548161ffff021916908361ffff16021790555060208201518160000160026101000a81548160ff021916908360ff16021790555060408201518160000160036101000a81548160ff021916908360ff1602179055506060820151816001019080519060200190611d11929190612476565b506080820151816002019081611d2791906132ef565b5060a0820151816003015560c0820151816004019081611d4791906132ef565b5060e0820151816005019081611d5d91906132ef565b50905050611d6b33856121bd565b505050505050505050565b60008073ffffffffffffffffffffffffffffffffffffffff16611d98836117db565b73ffffffffffffffffffffffffffffffffffffffff1614159050919050565b6001811115611ed757600073ffffffffffffffffffffffffffffffffffffffff168473ffffffffffffffffffffffffffffffffffffffff1614611e4b5780600460008673ffffffffffffffffffffffffffffffffffffffff1673ffffffffffffffffffffffffffffffffffffffff1681526020019081526020016000206000828254611e43919061364e565b925050819055505b600073ffffffffffffffffffffffffffffffffffffffff168373ffffffffffffffffffffffffffffffffffffffff1614611ed65780600460008573ffffffffffffffffffffffffffffffffffffffff1673ffffffffffffffffffffffffffffffffffffffff1681526020019081526020016000206000828254611ece919061361a565b925050819055505b5b50505050565b50505050565b6000611f048473ffffffffffffffffffffffffffffffffffffffff166121db565b1561205d578373ffffffffffffffffffffffffffffffffffffffff1663150b7a02611f2d61130e565b8786866040518563ffffffff1660e01b8152600401611f4f9493929190613aa5565b6020604051808303816000875af1925050508015611f8b57506040513d601f19601f82011682018060405250810190611f889190613b06565b60015b61200d573d8060008114611fbb576040519150601f19603f3d011682016040523d82523d6000602084013e611fc0565b606091505b506000815103612005576040517f08c379a0000000000000000000000000000000000000000000000000000000008152600401611ffc90613a30565b60405180910390fd5b805181602001fd5b63150b7a0260e01b7bffffffffffffffffffffffffffffffffffffffffffffffffffffffff1916817bffffffffffffffffffffffffffffffffffffffffffffffffffffffff191614915050612062565b600190505b949350505050565b600080600090507a184f03e93ff9f4daa797ed6e38ed64bf6a1f01000000000000000083106120c8577a184f03e93ff9f4daa797ed6e38ed64bf6a1f01000000000000000083816120be576120bd61358b565b5b0492506040810190505b6d04ee2d6d415b85acef81000000008310612105576d04ee2d6d415b85acef810000000083816120fb576120fa61358b565b5b0492506020810190505b662386f26fc10000831061213457662386f26fc10000838161212a5761212961358b565b5b0492506010810190505b6305f5e100831061215d576305f5e10083816121535761215261358b565b5b0492506008810190505b61271083106121825761271083816121785761217761358b565b5b0492506004810190505b606483106121a5576064838161219b5761219a61358b565b5b0492506002810190505b600a83106121b4576001810190505b80915050919050565b6121d78282604051806020016040528060008152506121fe565b5050565b6000808273ffffffffffffffffffffffffffffffffffffffff163b119050919050565b6122088383612259565b6122156000848484611ee3565b612254576040517f08c379a000000000000000000000000000000000000000000000000000000000815260040161224b90613a30565b60405180910390fd5b505050565b600073ffffffffffffffffffffffffffffffffffffffff168273ffffffffffffffffffffffffffffffffffffffff16036122c8576040517f08c379a00000000000000000000000000000000000000000000000000000000081526004016122bf90613b7f565b60405180910390fd5b6122d181611d76565b15612311576040517f08c379a000000000000000000000000000000000000000000000000000000000815260040161230890613beb565b60405180910390fd5b61231f600083836001611db7565b61232881611d76565b15612368576040517f08c379a000000000000000000000000000000000000000000000000000000000815260040161235f90613beb565b60405180910390fd5b6001600460008473ffffffffffffffffffffffffffffffffffffffff1673ffffffffffffffffffffffffffffffffffffffff16815260200190815260200160002060008282540192505081905550816003600083815260200190815260200160002060006101000a81548173ffffffffffffffffffffffffffffffffffffffff021916908373ffffffffffffffffffffffffffffffffffffffff160217905550808273ffffffffffffffffffffffffffffffffffffffff16600073ffffffffffffffffffffffffffffffffffffffff167fddf252ad1be2c89b69c2b068fc378daa952ba7f163c4a11628f55a4df523b3ef60405160405180910390a4612472600083836001611edd565b5050565b8280548282559060005260206000209081019282156124ef579160200282015b828111156124ee5782518260006101000a81548173ffffffffffffffffffffffffffffffffffffffff021916908373ffffffffffffffffffffffffffffffffffffffff16021790555091602001919060010190612496565b5b5090506124fc9190612500565b5090565b5b80821115612519576000816000905550600101612501565b5090565b6000604051905090565b600080fd5b600080fd5b60007fffffffff0000000000000000000000000000000000000000000000000000000082169050919050565b61256681612531565b811461257157600080fd5b50565b6000813590506125838161255d565b92915050565b60006020828403121561259f5761259e612527565b5b60006125ad84828501612574565b91505092915050565b60008115159050919050565b6125cb816125b6565b82525050565b60006020820190506125e660008301846125c2565b92915050565b600081519050919050565b600082825260208201905092915050565b60005b8381101561262657808201518184015260208101905061260b565b60008484015250505050565b6000601f19601f8301169050919050565b600061264e826125ec565b61265881856125f7565b9350612668818560208601612608565b61267181612632565b840191505092915050565b600060208201905081810360008301526126968184612643565b905092915050565b6000819050919050565b6126b18161269e565b81146126bc57600080fd5b50565b6000813590506126ce816126a8565b92915050565b6000602082840312156126ea576126e9612527565b5b60006126f8848285016126bf565b91505092915050565b600073ffffffffffffffffffffffffffffffffffffffff82169050919050565b600061272c82612701565b9050919050565b61273c81612721565b82525050565b60006020820190506127576000830184612733565b92915050565b61276681612721565b811461277157600080fd5b50565b6000813590506127838161275d565b92915050565b600080604083850312156127a05761279f612527565b5b60006127ae85828601612774565b92505060206127bf858286016126bf565b9150509250929050565b6000806000606084860312156127e2576127e1612527565b5b60006127f086828701612774565b935050602061280186828701612774565b9250506040612812868287016126bf565b9150509250925092565b600080fd5b600080fd5b7f4e487b7100000000000000000000000000000000000000000000000000000000600052604160045260246000fd5b61285e82612632565b810181811067ffffffffffffffff8211171561287d5761287c612826565b5b80604052505050565b600061289061251d565b905061289c8282612855565b919050565b600067ffffffffffffffff8211156128bc576128bb612826565b5b6128c582612632565b9050602081019050919050565b82818337600083830152505050565b60006128f46128ef846128a1565b612886565b9050828152602081018484840111156129105761290f612821565b5b61291b8482856128d2565b509392505050565b600082601f8301126129385761293761281c565b5b81356129488482602086016128e1565b91505092915050565b60006020828403121561296757612966612527565b5b600082013567ffffffffffffffff8111156129855761298461252c565b5b61299184828501612923565b91505092915050565b6000602082840312156129b0576129af612527565b5b60006129be84828501612774565b91505092915050565b6129d08161269e565b82525050565b60006020820190506129eb60008301846129c7565b92915050565b6129fa816125b6565b8114612a0557600080fd5b50565b600081359050612a17816129f1565b92915050565b60008060408385031215612a3457612a33612527565b5b6000612a4285828601612774565b9250506020612a5385828601612a08565b9150509250929050565b600067ffffffffffffffff821115612a7857612a77612826565b5b612a8182612632565b9050602081019050919050565b6000612aa1612a9c84612a5d565b612886565b905082815260208101848484011115612abd57612abc612821565b5b612ac88482856128d2565b509392505050565b600082601f830112612ae557612ae461281c565b5b8135612af5848260208601612a8e565b91505092915050565b60008060008060808587031215612b1857612b17612527565b5b6000612b2687828801612774565b9450506020612b3787828801612774565b9350506040612b48878288016126bf565b925050606085013567ffffffffffffffff811115612b6957612b6861252c565b5b612b7587828801612ad0565b91505092959194509250565b600067ffffffffffffffff821115612b9c57612b9b612826565b5b602082029050602081019050919050565b600080fd5b6000612bc5612bc084612b81565b612886565b90508083825260208201905060208402830185811115612be857612be7612bad565b5b835b81811015612c115780612bfd8882612774565b845260208401935050602081019050612bea565b5050509392505050565b600082601f830112612c3057612c2f61281c565b5b8135612c40848260208601612bb2565b91505092915050565b600080600080600060a08688031215612c6557612c64612527565b5b600086013567ffffffffffffffff811115612c8357612c8261252c565b5b612c8f88828901612c1b565b955050602086013567ffffffffffffffff811115612cb057612caf61252c565b5b612cbc88828901612923565b9450506040612ccd888289016126bf565b935050606086013567ffffffffffffffff811115612cee57612ced61252c565b5b612cfa88828901612923565b925050608086013567ffffffffffffffff811115612d1b57612d1a61252c565b5b612d2788828901612923565b9150509295509295909350565b600061ffff82169050919050565b612d4b81612d34565b82525050565b600060ff82169050919050565b612d6781612d51565b82525050565b6000606082019050612d826000830186612d42565b612d8f6020830185612d5e565b612d9c6040830184612d5e565b949350505050565b60008060408385031215612dbb57612dba612527565b5b6000612dc985828601612774565b9250506020612dda85828601612774565b9150509250929050565b600081519050919050565b600082825260208201905092915050565b6000819050602082019050919050565b612e1981612721565b82525050565b6000612e2b8383612e10565b60208301905092915050565b6000602082019050919050565b6000612e4f82612de4565b612e598185612def565b9350612e6483612e00565b8060005b83811015612e95578151612e7c8882612e1f565b9750612e8783612e37565b925050600181019050612e68565b5085935050505092915050565b600060e082019050612eb7600083018a612d42565b612ec46020830189612d5e565b612ed16040830188612d5e565b8181036060830152612ee38187612e44565b90508181036080830152612ef78186612643565b905081810360a0830152612f0b8185612643565b905081810360c0830152612f1f8184612643565b905098975050505050505050565b7f4e487b7100000000000000000000000000000000000000000000000000000000600052602260045260246000fd5b60006002820490506001821680612f7457607f821691505b602082108103612f8757612f86612f2d565b5b50919050565b7f4552433732313a20617070726f76616c20746f2063757272656e74206f776e6560008201527f7200000000000000000000000000000000000000000000000000000000000000602082015250565b6000612fe96021836125f7565b9150612ff482612f8d565b604082019050919050565b6000602082019050818103600083015261301881612fdc565b9050919050565b7f4552433732313a20617070726f76652063616c6c6572206973206e6f7420746f60008201527f6b656e206f776e6572206f7220617070726f76656420666f7220616c6c000000602082015250565b600061307b603d836125f7565b91506130868261301f565b604082019050919050565b600060208201905081810360008301526130aa8161306e565b9050919050565b7f4552433732313a2063616c6c6572206973206e6f7420746f6b656e206f776e6560008201527f72206f7220617070726f76656400000000000000000000000000000000000000602082015250565b600061310d602d836125f7565b9150613118826130b1565b604082019050919050565b6000602082019050818103600083015261313c81613100565b9050919050565b60008190508160005260206000209050919050565b60006020601f8301049050919050565b600082821b905092915050565b6000600883026131a57fffffffffffffffffffffffffffffffffffffffffffffffffffffffffffffffff82613168565b6131af8683613168565b95508019841693508086168417925050509392505050565b6000819050919050565b60006131ec6131e76131e28461269e565b6131c7565b61269e565b9050919050565b6000819050919050565b613206836131d1565b61321a613212826131f3565b848454613175565b825550505050565b600090565b61322f613222565b61323a8184846131fd565b505050565b5b8181101561325e57613253600082613227565b600181019050613240565b5050565b601f8211156132a35761327481613143565b61327d84613158565b8101602085101561328c578190505b6132a061329885613158565b83018261323f565b50505b505050565b600082821c905092915050565b60006132c6600019846008026132a8565b1980831691505092915050565b60006132df83836132b5565b9150826002028217905092915050565b6132f8826125ec565b67ffffffffffffffff81111561331157613310612826565b5b61331b8254612f5c565b613326828285613262565b600060209050601f8311600181146133595760008415613347578287015190505b61335185826132d3565b8655506133b9565b601f19841661336786613143565b60005b8281101561338f5784890151825560018201915060208501945060208101905061336a565b868310156133ac57848901516133a8601f8916826132b5565b8355505b6001600288020188555050505b505050505050565b7f4552433732313a20696e76616c696420746f6b656e2049440000000000000000600082015250565b60006133f76018836125f7565b9150613402826133c1565b602082019050919050565b60006020820190508181036000830152613426816133ea565b9050919050565b7f4552433732313a2061646472657373207a65726f206973206e6f74206120766160008201527f6c6964206f776e65720000000000000000000000000000000000000000000000602082015250565b60006134896029836125f7565b91506134948261342d565b604082019050919050565b600060208201905081810360008301526134b88161347c565b9050919050565b600081905092915050565b60006134d5826125ec565b6134df81856134bf565b93506134ef818560208601612608565b80840191505092915050565b600061350782856134ca565b915061351382846134ca565b91508190509392505050565b7f436c61696d696e67206120636f726b20636f7374732031302066696e6e65792e600082015250565b60006135556020836125f7565b91506135608261351f565b602082019050919050565b6000602082019050818103600083015261358481613548565b9050919050565b7f4e487b7100000000000000000000000000000000000000000000000000000000600052601260045260246000fd5b7f4e487b7100000000000000000000000000000000000000000000000000000000600052601160045260246000fd5b60006135f48261269e565b91506135ff8361269e565b92508261360f5761360e61358b565b5b828204905092915050565b60006136258261269e565b91506136308361269e565b9250828201905080821115613648576136476135ba565b5b92915050565b60006136598261269e565b91506136648361269e565b925082820390508181111561367c5761367b6135ba565b5b92915050565b600061368d8261269e565b91506136988361269e565b92508282026136a68161269e565b915082820484148315176136bd576136bc6135ba565b5b5092915050565b7f4f776e61626c653a206e6577206f776e657220697320746865207a65726f206160008201527f6464726573730000000000000000000000000000000000000000000000000000602082015250565b60006137206026836125f7565b915061372b826136c4565b604082019050919050565b6000602082019050818103600083015261374f81613713565b9050919050565b7f4e4654206e6f74206d696e7465642e0000000000000000000000000000000000600082015250565b600061378c600f836125f7565b915061379782613756565b602082019050919050565b600060208201905081810360008301526137bb8161377f565b9050919050565b7f4552433732313a207472616e736665722066726f6d20696e636f72726563742060008201527f6f776e6572000000000000000000000000000000000000000000000000000000602082015250565b600061381e6025836125f7565b9150613829826137c2565b604082019050919050565b6000602082019050818103600083015261384d81613811565b9050919050565b7f4552433732313a207472616e7366657220746f20746865207a65726f2061646460008201527f7265737300000000000000000000000000000000000000000000000000000000602082015250565b60006138b06024836125f7565b91506138bb82613854565b604082019050919050565b600060208201905081810360008301526138df816138a3565b9050919050565b7f4f776e61626c653a2063616c6c6572206973206e6f7420746865206f776e6572600082015250565b600061391c6020836125f7565b9150613927826138e6565b602082019050919050565b6000602082019050818103600083015261394b8161390f565b9050919050565b7f4552433732313a20617070726f766520746f2063616c6c657200000000000000600082015250565b60006139886019836125f7565b915061399382613952565b602082019050919050565b600060208201905081810360008301526139b78161397b565b9050919050565b7f4552433732313a207472616e7366657220746f206e6f6e20455243373231526560008201527f63656976657220696d706c656d656e7465720000000000000000000000000000602082015250565b6000613a1a6032836125f7565b9150613a25826139be565b604082019050919050565b60006020820190508181036000830152613a4981613a0d565b9050919050565b600081519050919050565b600082825260208201905092915050565b6000613a7782613a50565b613a818185613a5b565b9350613a91818560208601612608565b613a9a81612632565b840191505092915050565b6000608082019050613aba6000830187612733565b613ac76020830186612733565b613ad460408301856129c7565b8181036060830152613ae68184613a6c565b905095945050505050565b600081519050613b008161255d565b92915050565b600060208284031215613b1c57613b1b612527565b5b6000613b2a84828501613af1565b91505092915050565b7f4552433732313a206d696e7420746f20746865207a65726f2061646472657373600082015250565b6000613b696020836125f7565b9150613b7482613b33565b602082019050919050565b60006020820190508181036000830152613b9881613b5c565b9050919050565b7f4552433732313a20746f6b656e20616c7265616479206d696e74656400000000600082015250565b6000613bd5601c836125f7565b9150613be082613b9f565b602082019050919050565b60006020820190508181036000830152613c0481613bc8565b905091905056fea2646970667358221220abd2d216bda92326c369202a86ec95f036ed8fc58d32046ccb830ed9f6c108d264736f6c63430008110033",
  "immutableReferences": {},
  "source": "// SPDX-License-Identifier: MIT\r\n// Tells the Solidity compiler to compile only from v0.8.13 to v0.9.0\r\npragma solidity ^0.8.13;\r\n\r\nimport \"@openzeppelin/contracts/access/Ownable.sol\";\r\nimport \"@openzeppelin/contracts/token/ERC721/ERC721.sol\";\r\n\r\ncontract TheWineGame is Ownable, ERC721 {\r\n    \r\n    struct WineCork {\r\n        uint16 year;\r\n        uint8 month;\r\n        uint8 day;\r\n        address[] guests;\r\n        string title;\r\n        uint256 beverage_barcode_data;\r\n        string beverage_brand;\r\n        string baverage_name;\r\n    }\r\n    \r\n    mapping (uint256 => WineCork) allCorks;\r\n\r\n    string private _currentBaseURI;\r\n\r\n    uint256 private tokenIDCounter = 0;\r\n\r\n    constructor() ERC721(\"TheWineGame\", \"TWG\") {\r\n        setBaseURI(\"localhost:3333\");\r\n    }\r\n\r\n    function setBaseURI(string memory baseURI) public onlyOwner {\r\n        _currentBaseURI = baseURI;\r\n    }\r\n\r\n    function _baseURI() internal view virtual override returns (string memory) {\r\n        return _currentBaseURI;\r\n    }\r\n\r\n    function getCork(uint256 tokenID) external view returns (uint16 year, uint8 month, uint8 day, address[] memory guests, string memory title, string memory brand, string memory name) {\r\n        require(_exists(tokenID), \"NFT not minted.\");\r\n        WineCork memory cork = allCorks[tokenID];\r\n        year = cork.year;\r\n        month = cork.month;\r\n        day = cork.day;\r\n        guests = cork.guests;\r\n        title = cork.title;\r\n        brand = cork.beverage_brand;\r\n        name = cork.baverage_name;\r\n    }\r\n\r\n    function claim(address[] memory guests, string memory title, uint256 beverage_barcode_data, string memory beverage_brand, \r\n                    string memory baverage_name) external payable {\r\n        require(msg.value == 0.01 ether, \"Claiming a cork costs 10 finney.\");\r\n\r\n        mint(guests, title, beverage_barcode_data, beverage_brand, baverage_name);\r\n        payable(owner()).transfer(0.01 ether);\r\n    }\r\n\r\n    function mint(address[] memory guests, string memory title, uint256 beverage_barcode_data, string memory beverage_brand, string memory baverage_name) internal {\r\n        uint256 newTokenID = tokenIDCounter;\r\n        tokenIDCounter += 1;\r\n        (uint16 year, uint8 month, uint8 day) = timestampToDate(block.timestamp);\r\n\r\n        allCorks[newTokenID] = WineCork(year, month, day, guests, title, beverage_barcode_data, beverage_brand, baverage_name);\r\n        _safeMint(msg.sender, newTokenID);\r\n    }\r\n\r\n    function timestampToDate(uint timestamp) public pure returns (uint16 year, uint8 month, uint8 day) {\r\n        uint z = timestamp / 86400 + 719468;\r\n        uint era = (z >= 0 ? z : z - 146096) / 146097;\r\n        uint doe = z - era * 146097;\r\n        uint yoe = (doe - doe/1460 + doe/36524 - doe/146096) / 365;\r\n        uint doy = doe - (365*yoe + yoe/4 - yoe/100);\r\n        uint mp = (5*doy + 2)/153;\r\n\r\n        day = uint8(doy - (153*mp+2)/5 + 1);\r\n        month = mp < 10 ? uint8(mp + 3) : uint8(mp - 9);\r\n        year = uint16(yoe + era * 400 + (month <= 2 ? 1 : 0));\r\n    }\r\n}",
  "sourcePath": "D:\\Dudu\\CCO\\7 - Semestre\\INE5458 - Blockchain and Cryptocurrencies Technologies\\Trabalho\\TheWineGame\\SmartContract\\contracts\\TheWineGame.sol",
  "compiler": {
    "name": "solc",
    "version": "0.8.17+commit.8df45f5f.Emscripten.clang"
  },
  "schemaVersion": "3.4.11",
  "updatedAt": "2022-12-15T11:04:30.262Z",
  "networkType": "ethereum",
  "devdoc": {
    "kind": "dev",
    "methods": {
      "approve(address,uint256)": {
        "details": "See {IERC721-approve}."
      },
      "balanceOf(address)": {
        "details": "See {IERC721-balanceOf}."
      },
      "getApproved(uint256)": {
        "details": "See {IERC721-getApproved}."
      },
      "isApprovedForAll(address,address)": {
        "details": "See {IERC721-isApprovedForAll}."
      },
      "name()": {
        "details": "See {IERC721Metadata-name}."
      },
      "owner()": {
        "details": "Returns the address of the current owner."
      },
      "ownerOf(uint256)": {
        "details": "See {IERC721-ownerOf}."
      },
      "renounceOwnership()": {
        "details": "Leaves the contract without owner. It will not be possible to call `onlyOwner` functions anymore. Can only be called by the current owner. NOTE: Renouncing ownership will leave the contract without an owner, thereby removing any functionality that is only available to the owner."
      },
      "safeTransferFrom(address,address,uint256)": {
        "details": "See {IERC721-safeTransferFrom}."
      },
      "safeTransferFrom(address,address,uint256,bytes)": {
        "details": "See {IERC721-safeTransferFrom}."
      },
      "setApprovalForAll(address,bool)": {
        "details": "See {IERC721-setApprovalForAll}."
      },
      "supportsInterface(bytes4)": {
        "details": "See {IERC165-supportsInterface}."
      },
      "symbol()": {
        "details": "See {IERC721Metadata-symbol}."
      },
      "tokenURI(uint256)": {
        "details": "See {IERC721Metadata-tokenURI}."
      },
      "transferFrom(address,address,uint256)": {
        "details": "See {IERC721-transferFrom}."
      },
      "transferOwnership(address)": {
        "details": "Transfers ownership of the contract to a new account (`newOwner`). Can only be called by the current owner."
      }
    },
    "version": 1
  },
  "userdoc": {
    "kind": "user",
    "methods": {},
    "version": 1
  }
}